S014000050616E696D6F6E6B656C6C6F2E7372656327
S113000010C01FC01EC01DC01CC01BC08FC019C0A3
S113001018C017C016C015C014C013C012C011C038
S113002010C011241FBECFE5D2E0DEBFCDBF20E05B
S1130030A0E6B0E001C01D92A537B207E1F702D0F7
S113004076C1DECFCF93DF93CDB7DEB78BE390E0FD
S1130050FC0110828AE390E021E8FC01208386E41D
S113006090E020E8FC01208386E490E0FC0110820B
S11300708FE490E0FC0110828EE490E029E0FC0122
S113008020838BE490E02EE3FC0120838AE490E05B
S113009020E8FC0120838CE290E022E0FC01208334
S11300A0109261001092600010926300109262003E
S11300B0109265001092640010926700109266001E
S11300C01092680010926E0010926D0010927000F1
S11300D010927100109272001092730078948091C3
S11300E0700090917100A0917200B091730001961C
S11300F0A11DB11D8093700090937100A0937200B4
S1130100B09373008091700090917100A09172007F
S1130110B0917300893EF3E09F07A105B10528F073
S1130120809174008F5F80937400D9CF1F920F92D7
S113013000905F000F9211242F933F938F939F930E
S1130140EF93FF93CF93DF93CDB7DEB790916F001A
S113015081E0992309F080E080936F008BE390E0C5
S113016029E330E0F9012081322F3E7F20916F0096
S1130170232BFC0120838091600090916100019603
S11301809093610080936000809160009091610081
S11301908036FAEE9F0769F41092610010926000B5
S11301A08091620090916300019690936300809324
S11301B062008091660090916700009751F08091F1
S11301C066009091670001979093670080936600A2
S11301D01EC080916200909163000097C1F08091ED
S11301E06200909163000197909363008093620092
S11301F088EC90E090936500809364008BE390E03A
S113020029E330E0F90120812068FC0120838091FA
S11302106400909165000097A1F080916400909132
S11302206500019790936500809364008091640059
S11302309091650081309105C9F481E08093680054
S113024015C080916800882389F08BE390E029E34E
S113025030E0F90120812F77FC01208388EE93E0C0
S113026090936700809366001092680089E390E0A1
S1130270FC018081882F90E0887099279595879557
S113028095958795959587958093690090916900D8
S113029080916A00981789F480916D0090916E00A6
S11302A08436910570F480916D0090916E000196F2
S11302B090936E0080936D0004C010926E001092B3
S11302C06D008091690080936A0080916D00909127
S11302D06E008436910541F480916B0080936C002C
S11302E08091690080936B0080916B00882389F46E
S11302F080916C00813069F410926100109260006A
S113030080916200909163000196909363008093C2
S11303106200DF91CF91FF91EF919F918F913F9177
S11303202F910F9000925F000F901F901895F894F2
S1050330FFCFF9
S9030000FC
